:100000000C9434000C943E000C943E000C943E0082
:100010000C943E000C943E000C943E000C943E0068
:100020000C943E000C943E000C943E000C943E0058
:100030000C943E000C943E000C943E000C943E0048
:100040000C943E000C943E000C943E000C943E0038
:100050000C943E000C943E000C943E000C943E0028
:100060000C943E000C943E0011241FBECFEFD8E04C
:10007000DEBFCDBF0E94B8000C94CC000C940000F1
:10008000CF93DF93CDB7DEB700008CEB90E0FC019F
:1000900080818823D4F70000DF91CF910895CF931A
:1000A000DF93CDB7DEB78CEB90E024EAFC01208330
:1000B0000E94400089EB90E0FC018081882F90E055
:1000C000887F99278D3E910511F08FEF19C08BEB3A
:1000D00090E021E0FC0120838CEB90E024E8FC011F
:1000E00020830E94400089EB90E0FC018081882FF2
:1000F00090E0887F9927019711F08FEF01C080E091
:10010000DF91CF910895CF93DF930F92CDB7DEB7F4
:1001100089838BEB90E02981FC0120838CEB90E0BC
:1001200024E8FC0120830E94400089EB90E0FC0160
:100130008081882F90E09C01287F33278981882F38
:1001400090E02817390711F08FEF01C080E00F9081
:10015000DF91CF910895CF93DF93CDB7DEB78CEBCE
:1001600090E024E9FC0120830000DF91CF91089505
:10017000CF93DF930F92CDB7DEB70E944F008CE094
:10018000898389810E9483000E94AB0080E090E017
:0C0190000F90DF91CF910895F894FFCFFD
:00000001FF
