:100000000C9434000C943E000C943E000C943E0082
:100010000C943E000C943E000C943E000C943E0068
:100020000C943E000C943E000C943E000C943E0058
:100030000C943E000C943E000C943E000C943E0048
:100040000C943E000C943E000C943E000C943E0038
:100050000C943E000C943E000C943E000C943E0028
:100060000C943E000C943E0011241FBECFEFD8E04C
:10007000DEBFCDBF0E94CE010C94DE020C940000C6
:10008000282F30E080FF15C080E821FD806422FD2C
:10009000806223FD806124FD886025FD846026FD4B
:1000A0008260220F232F221F330B232B09F0816044
:1000B000089580E0EACF8CE10E94B80288E10E94B6
:1000C000B80289E098E20197F1F700C000008CE1E6
:1000D0000E94B80288E10E94B80289EF90E001977F
:1000E000F1F700C000008CE10E94B80288E10E9494
:1000F000B80289EF90E00197F1F700C0000084E1B9
:100100000E94B80280E10E94B80283EC99E0019756
:10011000F1F700C0000084E10E94B80280E10E9473
:10012000B80283EC99E00197F1F700C000008CE180
:100130000E94B80288E10E94B80283EC99E001971E
:10014000F1F700C0000084E00E94B80280E00E9445
:10015000B80283EC99E00197F1F700C0000084E851
:100160000E94B80280E80E94B80283EC99E00197EF
:10017000F1F700C0000084E00E94B80280E00E9415
:10018000B80283EC99E00197F1F700C0000085E028
:100190000E94B80281E00E94B80283EC99E00197C6
:1001A000F1F700C0000084E00E94B80280E00E94E5
:1001B000B80283EC99E00197F1F700C0000085E3F5
:1001C0000E94B80281E30E94B80283EC99E0019793
:1001D000F1F700C000000895CF93DF93482F4F70D0
:1001E000282F207F30E090E024FD986025FD94606A
:1001F00026FD9260220F232F221F330B232B09F0A1
:1002000091609295907F242F30E0D0E880FFD0E07D
:1002100021FDD06422FDD06235952795359527952F
:1002200035952795232B09F0D061C92FC6958C2FC2
:1002300084600E94B8028C2F0E94B80283EC99E07F
:100240000197F1F700C00000D295DF70DD0FDD0FE0
:10025000DD0F8D2F84600E94B8028D2F80680E9470
:10026000B80283EC99E00197F1F700C00000DF913C
:10027000CF910895CF93DF93C82FD82FD695D877F5
:100280008D2F86680E94B8028D2F82680E94B80266
:1002900083EC99E00197F1F700C00000CC0FCC0F80
:1002A000CC0FC8778C2F86680E94B8028C2F82688A
:1002B0000E94B80283EC99E00197F1F700C00000BA
:1002C000DF91CF910895CF93DF93982F9F70282FC0
:1002D000207F30E0C0E024FDC86025FDC46026FD1D
:1002E000C260220F232F221F330B232B09F0C16082
:1002F000292F30E090E880FF90E021FD906422FDFE
:100300009062359527953595279535952795232B1B
:1003100009F0906180E1C89FE001112492959F70DF
:10032000C92BDC2FD695D8778D2F86680E94B8020E
:100330008D2F82680E94B80283EC99E00197F1F753
:1003400000C00000CC0FCC0FCC0FC8778C2F866874
:100350000E94B8028C2F82680E94B80283EC99E058
:100360000197F1F700C00000DF91CF9108950F933E
:100370001F93CF93DF9377276115710551F0EC013F
:100380008C01060F171F89910E9463010C171D072E
:10039000D1F7DF91CF911F910F9108950E943B02F9
:1003A00089EF90E00197F1F700C0000080E40E941F
:1003B000410289EF90E00197F1F700C0000080E072
:1003C0000E94B80289EF90E00197F1F700C00000A9
:1003D00080E00E94B8020E94B00287EA91E601978D
:1003E000F1F700C0000080E40E94410287EA91E634
:1003F0000197F1F700C0000085E00E94B80283EC8D
:1004000099E00197F1F700C0000080E20E94B80275
:100410000E94B00280E40E94410287EA91E60197BF
:10042000F1F700C0000089E00E94B80283EC99E077
:100430000197F1F700C000000E945B0084E00E9479
:10044000B80280E00E94B80283EC99E00197F1F7CE
:1004500000C0000085E70E94B80281EF0E94B80248
:1004600083EC99E00197F1F700C000000E94B00210
:1004700090E080E008951092B9008DEF8093B8006D
:10048000089594EA9093BC009091BC0097FFFCCF34
:100490009091B900987F983011F0903191F4809349
:1004A000BB0084E88093BC008091BC0087FFFCCF38
:1004B0009091B900987F983131F081E0903419F033
:1004C000089581E0089580E0089524EA34E844E93D
:1004D0002093BC009091BC0097FFFCCF9091B90095
:1004E000987F983011F0903199F78093BB0030934A
:1004F000BC009091BC0097FFFCCF9091B900987F11
:10050000903219F0983509F008954093BC0090910D
:10051000BC0094FDFCCFDCCF94EA9093BC0090919A
:10052000BC0097FFFCCF9091B900987F983011F0F4
:10053000903191F48093BB0084E88093BC0080915B
:10054000BC0087FFFCCF9091B900987F983131F0C3
:1005500081E0903419F0089581E0089580E00895D5
:1005600084E98093BC008091BC0084FDFCCF089599
:100570008093BB0084E88093BC008091BC0087FF1F
:10058000FCCF9091B900987F81E0983209F00895EE
:1005900080E0089584EC8093BC008091BC0087FFCC
:1005A000FCCF8091BB00089584E88093BC008091CB
:1005B000BC0087FFFCCF8091BB000895F894FFCF6B
:00000001FF
