:100000000C9434000C9449000C9449000C94490061
:100010000C9449000C9449000C9449000C9449003C
:100020000C9449000C9449000C9449000C9449002C
:100030000C9449000C9449000C9449000C9449001C
:100040000C9449000C9449000C9449000C9449000C
:100050000C9449000C9449000C9449000C944900FC
:100060000C9449000C94490011241FBECFEFD8E036
:10007000DEBFCDBF11E0A0E0B1E0ECE4F4E002C0EF
:1000800005900D92A031B107D9F70E94F1010C94AF
:1000900024020C94000084E60E94DA0180E60E94AB
:1000A000DA0189E098E20197F1F700C0000084E6E8
:1000B0000E94DA0180E60E94DA0189EF90E0019760
:1000C000F1F700C0000084E60E94DA0180E60E9499
:1000D000DA0189EF90E00197F1F700C0000084E2B7
:1000E0000E94DA0180E20E94DA0183EC99E0019734
:1000F000F1F700C0000084E20E94DA0180E20E9471
:10010000DA0183EC99E00197F1F700C000008CE080
:100110000E94DA0188E00E94DA0183EC99E00197FD
:10012000F1F700C0000084E00E94DA0180E00E9444
:10013000DA0183EC99E00197F1F700C000008CE44C
:100140000E94DA0188E40E94DA0183EC99E00197C9
:10015000F1F700C0000084E00E94DA0180E00E9414
:10016000DA0183EC99E00197F1F700C0000084E424
:100170000E94DA0180E40E94DA0183EC99E00197A1
:10018000F1F700C0000084E00E94DA0180E00E94E4
:10019000DA0183EC99E00197F1F700C0000084E3F5
:1001A0000E94DA0180E30E94DA0183EC99E0019772
:1001B000F1F700C000000895CF93DF93C82FD82F28
:1001C000D07FD6958D2F84600E94DA018D2F0E94FA
:1001D000DA0183EC99E00197F1F700C00000CF70DD
:1001E000CC0FCC0FCC0F8C2F84600E94DA018C2FA7
:1001F0000E94DA0183EC99E00197F1F700C000005A
:10020000DF91CF910895CF93DF93C82FD82FD07F60
:10021000D6958D2F86680E94DA018D2F82680E9404
:10022000DA0183EC99E00197F1F700C00000CF708C
:10023000CC0FCC0FCC0F8C2F86680E94DA018C2F4C
:1002400082680E94DA0183EC99E00197F1F700C01F
:100250000000DF91CF910895CF93DF93482F407F27
:1002600050E090E0292F286044FD922F292F246030
:1002700045FD922F292F226046FD922F792F716024
:10028000282F2F7030E080FF48C060E8C62FC06480
:1002900021FD6C2FC62FC06222FD6C2FC62FC061BE
:1002A000359527953595279535952795232B09F471
:1002B000C62F440F452F441F550B452B09F0972F90
:1002C00020E1929FC0011124C295CF70C82BDC2F72
:1002D000D07FD6958D2F86680E94DA018D2F826897
:1002E0000E94DA0183EC99E00197F1F700C0000069
:1002F000CF70CC0FCC0FCC0F8C2F86680E94DA0108
:100300008C2F82680E94DA0183EC99E00197F1F763
:1003100000C00000DF91CF91089560E0B7CF282F93
:1003200030E080FF23C090E8892F806421FF892F6F
:10033000982F906222FD892F982F906123FD892F9D
:10034000982F986024FD892F982F946025FD892F80
:10035000982F926026FD892F982F9160220F232FCE
:10036000221F330B232B09F0892F089590E0DCCF57
:100370000F931F93CF93DF938B0111270115110565
:1003800049F0EC01080F191F89910E942C01C01738
:10039000D107D1F7DF91CF911F910F91089584B1CB
:1003A0008C6284B924982A9A82E58CBD8DB58E7FA3
:1003B0008DBD08958EBD0DB407FEFDCF89E090E0A0
:1003C0002A9A00002A980197D9F700008EB508955F
:1003D00089E090E02A9A00002A980197D9F7000056
:1003E0000895CF93DF93CDB7DEB760970FB6F8943B
:1003F000DEBF0FBECDBF0E94CF012FE788E391E0A3
:10040000215080409040E1F700C000000E944B0066
:100410008BE00E94DC0080E1E0E0F1E0DE0111967B
:1004200001900D928A95E1F76FE070E0CE010196A0
:100430000E94B8012FE38DE093E02150804090406E
:0C044000E1F700C00000F6CFF894FFCFF9
:10044C004F206173616461736520676179212100BC
:00000001FF
