:100000000C9434000C943E000C943E000C943E0082
:100010000C943E000C943E000C943E000C943E0068
:100020000C943E000C943E000C943E000C943E0058
:100030000C943E000C943E000C943E000C943E0048
:100040000C943E000C943E000C943E000C943E0038
:100050000C943E000C943E000C943E000C943E0028
:100060000C943E000C943E0011241FBECFEFD8E04C
:10007000DEBFCDBF0E944A000C9464000C940000C7
:100080008CE284B981E58CBD08958EBD0DB407FE68
:10009000FDCF08950E94400081E00E9445002D9808
:1000A0002FE986E891E0215080409040E1F700C0C0
:1000B00000002D9A2FE986E891E021508040904081
:0C00C000E1F700C00000EBCFF894FFCF88
:00000001FF
