:100000000C9434000C943E000C943E000C943E0082
:100010000C943E000C943E000C943E000C943E0068
:100020000C943E000C943E000C943E000C943E0058
:100030000C943E000C943E000C943E000C943E0048
:100040000C943E000C943E000C943E000C943E0038
:100050000C943E000C943E000C943E000C943E0028
:100060000C943E000C943E0011241FBECFEFD8E04C
:10007000DEBFCDBF0E9469000C940B010C94000000
:1000800084B18C6284B924982A9A82E58CBD8DB59E
:100090008E7F8DBD0895982F94609EBD0DB407FE90
:1000A000FDCF29E030E02A9A00002A98215031093A
:1000B000D1F700008B7F8EBD0DB407FEFDCF89E028
:1000C00090E02A9A00002A980197D9F700008EB58F
:1000D00008950E9440002FE788E391E0215080407E
:1000E0009040E1F700C0000080E60E944B0089E0EC
:1000F00098E20197F1F700C0000080E60E944B00F3
:1001000089EF90E00197F1F700C0000080E60E94BF
:100110004B0089EF90E00197F1F700C0000080E20A
:100120000E944B0083EC99E00197F1F700C00000BA
:1001300080E20E944B0083EC99E00197F1F700C048
:10014000000088E00E944B0083EC99E00197F1F7F2
:1001500000C0000080E00E944B0083EC99E0019712
:10016000F1F700C0000088E40E944B0083EC99E0A6
:100170000197F1F700C0000080E00E944B0083EC83
:1001800099E00197F1F700C0000080E40E944B0065
:1001900083EC99E00197F1F700C0000080E00E9435
:1001A0004B0083EC99E00197F1F700C0000080E379
:1001B0000E944B0083EC99E00197F1F700C000002A
:1001C00080E00E944B0083EC99E00197F1F700C0BA
:1001D000000088ED0E944B0083EC99E00197F1F755
:1001E00000C0000082E90E944B0083EC99E0019777
:1001F000F1F700C000008AEF0E944B0083EC99E009
:100200000197F1F700C0000087EA91E60197F1F746
:0A02100000C00000F9CFF894FFCF02
:00000001FF
