:100000000C9434000C943E000C943E000C943E0082
:100010000C943E000C943E000C943E000C943E0068
:100020000C943E000C943E000C943E000C943E0058
:100030000C943E000C943E000C943E000C943E0048
:100040000C943E000C943E000C943E000C943E0038
:100050000C943E000C943E000C943E000C943E0028
:100060000C943E000C943E0011241FBECFEFD8E04C
:10007000DEBFCDBF0E94A6010C94C0010C9400000D
:1000800084E60E948F0180E60E948F0189E098E259
:100090000197F1F700C0000084E60E948F0180E61E
:1000A0000E948F0189EF90E00197F1F700C00000F6
:1000B00084E60E948F0180E60E948F0189EF90E024
:1000C0000197F1F700C0000084E20E948F0180E2F6
:1000D0000E948F0183EC99E00197F1F700C00000C6
:1000E00084E20E948F0180E20E948F0183EC99E0FC
:1000F0000197F1F700C000008CE00E948F0188E0BA
:100100000E948F0183EC99E00197F1F700C0000095
:1001100084E00E948F0180E00E948F0183EC99E0CF
:100120000197F1F700C000008CE40E948F0188E481
:100130000E948F0183EC99E00197F1F700C0000065
:1001400084E00E948F0180E00E948F0183EC99E09F
:100150000197F1F700C0000084E40E948F0180E461
:100160000E948F0183EC99E00197F1F700C0000035
:1001700084E00E948F0180E00E948F0183EC99E06F
:100180000197F1F700C0000084E30E948F0180E333
:100190000E948F0183EC99E00197F1F700C0000005
:1001A0000895CF93DF93C82FD82FD07FD6958D2F6A
:1001B00084600E948F018D2F0E948F0183EC99E053
:1001C0000197F1F700C00000CF70CC0FCC0FCC0F1F
:1001D0008C2F84600E948F018C2F0E948F0183ECF2
:1001E00099E00197F1F700C00000DF91CF910895E9
:1001F000CF93DF93C82FD82FD07FD6958D2F8668C9
:100200000E948F018D2F82680E948F0183EC99E0FC
:100210000197F1F700C00000CF70CC0FCC0FCC0FCE
:100220008C2F86680E948F018C2F82680E948F011C
:1002300083EC99E00197F1F700C00000DF91CF91C6
:100240000895CF93DF93482F407F50E090E0292F0F
:10025000286044FD922F292F246045FD922F292FDD
:10026000226046FD922F792F7160282F2F7030E089
:1002700080FF48C060E8C62FC06421FD6C2FC62FE8
:10028000C06222FD6C2FC62FC0613595279535952C
:10029000279535952795232B09F4C62F440F452F15
:1002A000441F550B452B09F0972F20E1929FC00169
:1002B0001124C295CF70C82BDC2FD07FD6958D2FFF
:1002C00086680E948F018D2F82680E948F0183ECC7
:1002D00099E00197F1F700C00000CF70CC0FCC0F70
:1002E000CC0F8C2F86680E948F018C2F82680E9411
:1002F0008F0183EC99E00197F1F700C00000DF91D6
:10030000CF91089560E0B7CF84B18C6284B924980E
:100310002A9A82E58CBD8DB58E7F8DBD08958EBDE8
:100320000DB407FEFDCF89E090E02A9A00002A98DC
:100330000197D9F700008EB5089589E090E02A9AD8
:1003400000002A980197D9F7000008950E948401BF
:100350002FE788E391E0215080409040E1F700C012
:1003600000000E9440008BE00E94D10081E40E94C6
:10037000210187EA91E60197F1F700C00000F9CF6B
:04038000F894FFCF1F
:00000001FF
