:100000000C9434000C9449000C9449000C94490061
:100010000C9449000C9449000C9449000C9449003C
:100020000C9449000C9449000C9449000C9449002C
:100030000C9449000C9449000C9449000C9449001C
:100040000C9449000C9449000C9449000C9449000C
:100050000C9449000C9449000C9449000C944900FC
:100060000C9449000C94490011241FBECFEFD8E036
:10007000DEBFCDBF11E0A0E0B1E0EEEFF3E002C0E3
:1000800005900D92AA31B107D9F70E945D010C9439
:10009000FD010C9400006050714011F40C944C016F
:1000A00008950F931F93CF93DF93C82F8B01D82F01
:1000B000D695D8778D2F84680E944B008FE99FE0FA
:1000C0000197F1F700C00000B8018D2F80680E94F1
:1000D0004B008FE39CE90197F1F700C00000CC0FC3
:1000E000CC0FCC0FC877B8018C2F84600E944B00D6
:1000F0008FE99FE00197F1F700C00000B8018C2F55
:1001000080680E944B008FE39CE90197F1F700C0E3
:100110000000DF91CF911F910F9108950F931F93CE
:10012000CF93DF93C82F8B01D82FD695D8778D2FFB
:1001300086680E944B008FE99FE00197F1F700C0AD
:100140000000B8018D2F82680E944B008FE39CE96C
:100150000197F1F700C00000CC0FCC0FCC0FC8778F
:10016000B8018C2F86680E944B008FE99FE00197B1
:10017000F1F700C00000B8018C2F8268DF91CF91A9
:100180001F910F910C944B00EF92FF920F931F93CE
:10019000CF93DF937A01EC018C01060F111DC0177C
:1001A000D10739F4DF91CF911F910F91FF90EF901C
:1001B0000895B70189910E948E00F1CF0F931F938C
:1001C000CF93C82F8B018D7F84600E944B00B801B4
:1001D0008C2F897FCF911F910F910C944B00CF935F
:1001E000DF93EB0188E10E94DE002FE780E092E0E0
:1001F000215080409040E1F700C00000BE0188E13E
:100200000E94DE008FE99FE00197F1F700C0000037
:10021000BE0188E10E94DE008FE99FE00197F1F7BF
:1002200000C00000BE0180E10E94DE008FE39CE977
:100230000197F1F700C00000BE0188E20E94510062
:10024000BE0188E00E945100BE0181E00E94510081
:10025000BE0186E0DF91CF910C9451008091BC00EB
:1002600087FFFCCF08951092B90088E48093B8000E
:1002700008951F93CF93DF93182FCCEBD0E084EA3F
:1002800088830E942E011093BB0084E88883DF914D
:10029000CF911F910C942E018093BB0084E8809332
:1002A000BC000E942E0180E0089584E98093BC0088
:1002B0008091BC0084FDFCCF0895CDB7DEB7659773
:1002C0000FB6F894DEBF0FBECDBF0E9433018FE999
:1002D0009FE00197F1F700C0000080E40E9439011F
:1002E0008FE99FE00197F1F700C0000080E00E94D5
:1002F0004C018FE99FE00197F1F700C0000080E01A
:100300000E944C010E9455019FEF21EE84E0915024
:1003100020408040E1F700C0000080E40E943901E5
:100320009FEF21EE84E0915020408040E1F700C033
:10033000000085E00E944C018FE39CE90197F1F7F2
:1003400000C0000080E20E944C010E94550180E440
:100350000E9439019FEF21EE84E0915020408040BF
:10036000E1F700C0000089E00E944C018FE39CE9A6
:100370000197F1F700C0000060E071E080E40E94A6
:10038000EF008FE39CE90197F1F700C0000060E007
:1003900071E080E00E94DE008FE99FE00197F1F7B5
:1003A00000C0000060E071E080E70E94DE008FE3A3
:1003B0009CE90197F1F700C0000085E1E4E0F1E07D
:1003C000DE01119601900D928A95E1F740E051E02F
:1003D00064E170E0CE0101960E94C40060E071E02B
:1003E0008FE00E9451009FEF23ED80E39150204069
:0E03F0008040E1F700C00000F1CFF894FFCF8D
:1003FE00493243006173646768736A616B64736149
:0A040E007361642021212121000008
:00000001FF
