:100000000C9434000C943E000C943E000C943E0082
:100010000C943E000C943E000C943E000C943E0068
:100020000C943E000C943E000C943E000C943E0058
:100030000C943E000C943E000C943E000C943E0048
:100040000C943E000C943E000C943E000C943E0038
:100050000C943E000C943E000C943E000C943E0028
:100060000C943E000C943E0011241FBECFEFD8E04C
:10007000DEBFCDBF0E943E010C9459010C940000DC
:10008000CF93DF93C82FD82FD695D8778D2F86683A
:100090000E9438018D2F82680E94380183EC99E01C
:1000A0000197F1F700C00000CC0FCC0FCC0FC87740
:1000B0008C2F86680E9438018C2F82680E9438013C
:1000C00083EC99E00197F1F700C00000DF91CF9138
:1000D0000895CF93DF93682F30E020E080E070E058
:1000E000A7E0B0E0E1E0F0E005C02F5F3F4F28302F
:1000F0003105A1F0AB01022E02C0559547950A9437
:10010000E2F740FFF2CFAD01421B530BEF0102C0FB
:10011000CC0FDD1F4A95E2F78C2BE7CFDF91CF9113
:100120000895CF93DF93C82F807F0E946900D82F56
:100130008C2F8F700E946900C82FD295D07FD695E2
:100140008D2F84600E9438018D2F0E94380183EC2E
:1001500099E00197F1F700C00000C295CF70CC0F75
:10016000CC0FCC0F8C2F84600E9438018C2F8068BC
:100170000E94380183EC99E00197F1F700C000007C
:10018000DF91CF91089584E60E94380180E60E94B5
:10019000380189E098E20197F1F700C0000084E699
:1001A0000E94380180E60E94380189EF90E00197B3
:1001B000F1F700C0000084E60E94380180E60E944A
:1001C000380189EF90E00197F1F700C0000084E268
:1001D0000E94380180E20E94380183EC99E0019787
:1001E000F1F700C0000088E20E94910088E00E94C0
:1001F000910081E00E94910086E00E9491000895A4
:10020000CF93DF93D82FDF70807F0E946900C82FC3
:100210008D2F0E94690090E1C99FE0011124829511
:100220008F708C2B0E944000DF91CF9108950F9327
:100230001F93CF93DF9377271616170654F4EC011C
:100240008C01060F171F89910E940001C017D1076A
:10025000D1F7DF91CF911F910F9108958CE284B96E
:1002600024982A9A81E58CBD8DB58E7F8DBD089529
:100270008EBD0DB407FEFDCF8EB508950E942E01F0
:100280008CE00E9438012FE382E49FE021508040FF
:100290009040E1F700C000008CE00E9438012FE39D
:1002A00082E49FE0215080409040E1F700C00000D0
:0602B000E7CFF894FFCF38
:00000001FF
