:100000000C9434000C943E000C943E000C943E0082
:100010000C943E000C943E000C943E000C943E0068
:100020000C943E000C943E000C943E000C943E0058
:100030000C943E000C943E000C943E000C943E0048
:100040000C943E000C943E000C943E000C943E0038
:100050000C943E000C943E000C943E000C943E0028
:100060000C943E000C943E0011241FBECFEFD8E04C
:10007000DEBFCDBF0E9450000C946B000C940000BA
:100080008CE284B924982A9A81E58CBD8DB58E7F47
:100090008DBD08958EBD0DB407FEFDCF8EB50895BC
:1000A0000E9440008CE00E944A002FE382E49FE01F
:1000B000215080409040E1F700C000008CE00E9499
:1000C0004A002FE382E49FE0215080409040E1F716
:0A00D00000C00000E7CFF894FFCF56
:00000001FF
