:100000000C9434000C9449000C9449000C94490061
:100010000C9449000C9449000C9449000C9449003C
:100020000C9449000C9449000C9449000C9449002C
:100030000C9449000C9449000C9449000C9449001C
:100040000C9449000C9449000C9449000C9449000C
:100050000C9449000C9449000C9449000C944900FC
:100060000C9449000C94490011241FBECFEFD8E036
:10007000DEBFCDBF11E0A0E0B1E0EEE7F6E002C0E8
:1000800005900D92A231B107D9F70E9479020C9424
:100090003D030C9400001092B90081E48093B800F5
:1000A000209A089584E98093BC008091BC0084FD6F
:1000B000FCCF08958091BC0087FFFCCF0895CF93BB
:1000C000C82F289884EA8093BC000E945A0090911F
:1000D000B900987F983019F0289A0E945200C09376
:1000E000BB0084E88093BC000E945A008091B90054
:1000F000887F883121F0289ACF910C945200CF91BB
:1001000008958093BB0084E88093BC000E945A004D
:100110008091B900887F883219F0289A0C94520097
:100120000895CF93DF9320E030E090E0482F50E037
:1001300067E070E0E1E0F0E0DA01022E02C0B59580
:10014000A7950A94E2F7A0FF0AC0DB01A21BB30B3C
:10015000EF0102C0CC0FDD1FAA95E2F79C2B2F5FA9
:100160003F4F2830310541F7892FDF91CF91089516
:10017000613011F40C9481000C9471021F93CF93A1
:10018000DF93162FD82FD07FC82FCF7061110CC0EE
:100190008D2F0E949100D82FD295D07F8C2F0E9456
:1001A0009100C82FC295CF70D6958D2F8D7F612F6E
:1001B00084680E94B8008D2F897F612F80680E941B
:1001C000B8008FEF9FE80197F1F700C00000CC0F57
:1001D000CC0FCC0F612F8C2F84680E94B800612F48
:1001E0008C2F80680E94B8008FEF9FE80197F1F78D
:1001F00000C00000DF91CF911F9108951F93CF930E
:10020000DF93C82FD62F182F107F1695812F866861
:100210000E94B8006D2F812F82680E94B8008FEF76
:100220009FE80197F1F700C00000CF70CC0FCC0F12
:10023000CC0F6D2F8C2F86680E94B8006D2F8C2FED
:1002400082680E94B8008FEF9FE80197F1F700C025
:100250000000DF91CF911F9108950F931F93CF93CB
:10026000DF931F92CDB7DEB7611112C0182F1F7038
:10027000807F69830E949100082F812F0E94910046
:1002800090E1099F9001112482958F70822B6981E2
:100290000F90DF91CF911F910F910C94FE00EF9280
:1002A000FF920F931F93CF93DF931F92CDB7DEB7CB
:1002B000162F082F7C018E2D801B811748F4642F88
:1002C000F70181917F0149830E942D014981F3CF7C
:1002D0000F90DF91CF911F910F91FF90EF900895B4
:1002E000CF93DF93C82FD62F8D7F84600E94B800F4
:1002F0006D2F8C2F897FDF91CF910C94B8000E94D5
:100300004B002FEF8FE794E0215080409040E1F7C1
:1003100000C000002FEF8FE794E021508040904014
:10032000E1F700C0000080E40E945F0086E69EE0E6
:100330000197F1F7000080E00E94810086E69EE0D0
:100340000197F1F7000080E00E9481000E945200B6
:100350009FEF2FE784E0915020408040E1F700C0FC
:10036000000080E40E945F009FEF2FE784E091503F
:1003700020408040E1F700C0000085E00E9481003D
:100380008FEF9FE80197F1F700C0000080E20E9424
:1003900081000E94520080E40E945F009FEF2FE7DF
:1003A00084E0915020408040E1F700C0000089E0E7
:1003B0000E9481008FEF9FE80197F1F700C00000D5
:1003C00061E088E10E94700191E528ED81E09150A3
:1003D00020408040E1F700C0000061E088E10E9419
:1003E000700186E69EE00197F1F7000061E088E188
:1003F0000E94700186E69EE00197F1F7000061E03F
:1004000080E10E9470018FEF9FE80197F1F700C033
:10041000000008950E945D022FEF8FEF91E12150BF
:1004200080409040E1F700C0000060E080E60E945C
:10043000700121E588ED91E0215080409040E1F786
:1004400000C0000060E080E60E94700186E69EE049
:100450000197F1F7000060E080E60E94700186E6F7
:100460009EE00197F1F7000060E080E20E947001D9
:100470008FEF9FE80197F1F700C000000895CF9338
:10048000C82F813019F40E947F0102C00E940A0225
:100490006C2F80E20E94BE006C2F88E00E94BE009C
:1004A0006C2F81E00E94BE006C2F86E00E94BE008F
:1004B0006C2F8CE0CF910C94BE0084B18C6284B917
:1004C00024982A9A82E58CBD8DB58E7F8DBD0895C6
:1004D0002A9A85E08A95F1F72A9885E08A95F1F7BE
:1004E00008958EBD0DB407FEFDCF0E9468028EB543
:1004F0000895CF93DF93CDB7DEB762970FB6F89428
:10050000DEBF0FBECDBF80E00E943F022FEF8FE71E
:1005100094E0215080409040E1F700C0000081E06D
:100520000E943F022FEF8FE794E0215080409040DF
:10053000E1F700C0000089E0E0E0F1E0DE011A969A
:1005400001900D928A95E1F789E0E9E0F1E0DE01A2
:10055000119601900D928A95E1F740E068E070E015
:10056000CE010A960E944F012FEF8FE794E02150B1
:1005700080409040E1F700C0000041E068E070E09A
:10058000CE010A960E944F012FEF8FE794E0215091
:1005900080409040E1F700C000002FEF8FEF9CE219
:1005A000215080409040E1F700C0000060E081E011
:1005B0000E94BE008FEF9FE80197F1F700C0000096
:1005C00040E068E070E0CE0101960E944F019FEF8D
:1005D0002FE784E0915020408040E1F700C0000008
:1005E00061E081E00E94BE008FEF9FE80197F1F784
:1005F00000C0000041E068E070E0CE0101960E947A
:100600004F019FEF2FEF8CE2915020408040E1F7A7
:1006100000C0000060E081E00E94BE008FEF9FE814
:100620000197F1F700C0000040E068E070E0CE0103
:100630000A960E944F019FEF2FE784E091502040DF
:100640008040E1F700C0000061E081E00E94BE0050
:100650008FEF9FE80197F1F700C0000041E068E0EC
:1006600070E0CE010A960E944F019FEF2FEF8CE2BF
:0E067000915020408040E1F797CFF894FFCFE3
:10067E0061616161616161610062626262626262B6
:02068E00620008
:00000001FF
