:100000000C9434000C9449000C9449000C94490061
:100010000C9449000C9449000C9449000C9449003C
:100020000C9449000C9449000C9449000C9449002C
:100030000C9449000C9449000C9449000C9449001C
:100040000C9449000C9449000C9449000C9449000C
:100050000C9449000C9449000C9449000C944900FC
:100060000C9449000C94490011241FBECFEFD8E036
:10007000DEBFCDBF11E0A0E0B1E0ECE7F9E302C0E4
:1000800005900D92A231B107D9F70E9440120C944D
:10009000BC1C0C940000CF93DF93CDB7DEB789EB87
:1000A00090E0FC01108288EB90E021E4FC012083C9
:1000B00084E290E021E0FC012083DF91CF9108955C
:1000C000CF93DF931F92CDB7DEB789838CEB90E09F
:1000D00024EAFC0120830E94D50089EB90E0FC011A
:1000E0008081882F90E0887F9927089731F085E2FA
:1000F00090E021E0FC012083FFCF8BEB90E0298191
:10010000FC0120838CEB90E024E8FC0120830E941A
:10011000D50089EB90E0FC018081882F90E0887FFA
:100120009927489731F085E290E021E0FC01208397
:10013000FFCF0F90DF91CF910895CF93DF9300D041
:10014000CDB7DEB78A838BEB90E02A81FC01208358
:100150008CEB90E024E8FC0120830E94D50089EB21
:1001600090E0FC018081887F89838981883209F051
:10017000FFCF0F900F90DF91CF910895CF93DF9332
:10018000CDB7DEB78CEB90E024E9FC0120830000C2
:100190008CEB90E0FC018081882F90E080719927A2
:1001A000892BB1F7DF91CF910895CF93DF93CDB72E
:1001B000DEB700008CEB90E0FC0180818823D4F74F
:1001C000DF91CF910895CF93DF931F92CDB7DEB724
:1001D00089838981813019F40E94090102C00E943B
:1001E000F509698180E20E94A50C698188E00E947E
:1001F000A50C698181E00E94A50C698186E00E94BE
:10020000A50C69818CE00E94A50C0F90DF91CF9125
:1002100008950F931F93CF93DF93CDB7DEB7C75BDE
:10022000D1090FB6F894DEBF0FBECDBF0E944B00C0
:1002300080E090E0A8ECB2E48A839B83AC83BD832A
:1002400026E636E646E655E46A817B818C819D810F
:100250000E944F1CDC01CB018E839F83A887B98746
:1002600020E030E040E85FE36E817F8188859985FA
:100270000E942F1B88232CF481E090E09B878A87C3
:100280003FC020E03FEF4FE757E46E817F818885D4
:1002900099850E944A1C18164CF520E030E040E297
:1002A00051E46A817B818C819D810E944F1CDC011D
:1002B000CB01BC01CD010E94A61BDC01CB019B87B9
:1002C0008A870FC080E791E09D878C878C859D850C
:1002D0000197F1F79D878C878A859B8501979B877E
:1002E0008A878A859B85892B69F714C06E817F81F7
:1002F000888599850E94A61BDC01CB019B878A8794
:100300008A859B859F878E878E859F850197F1F7CC
:100310009F878E8780E090E0A8ECB2E4888B998B71
:10032000AA8BBB8B26E636E646E655E468897989D2
:100330008A899B890E944F1CDC01CB018C8B9D8B91
:10034000AE8BBF8B20E030E040E85FE36C897D89B5
:100350008E899F890E942F1B88232CF481E090E0D6
:10036000998F888F3FC020E03FEF4FE757E46C89BB
:100370007D898E899F890E944A1C18164CF520E0C1
:1003800030E040E251E4688979898A899B890E943A
:100390004F1CDC01CB01BC01CD010E94A61BDC017E
:1003A000CB01998F888F0FC080E791E09B8F8A8F58
:1003B0008A8D9B8D0197F1F79B8F8A8F888D998D00
:1003C0000197998F888F888D998D892B69F714C033
:1003D0006C897D898E899F890E94A61BDC01CB01D7
:1003E000998F888F888D998D9D8F8C8F8C8D9D8D09
:1003F0000197F1F79D8F8C8F80E40E94600080E070
:1004000090E0A0E8BFE38E8F9F8FA8A3B9A326E654
:1004100036E646E655E46E8D7F8D88A199A10E944F
:100420004F1CDC01CB018AA39BA3ACA3BDA320E09E
:1004300030E040E85FE36AA17BA18CA19DA10E940E
:100440002F1B88232CF481E090E09FA38EA33FC054
:1004500020E03FEF4FE757E46AA17BA18CA19DA16B
:100460000E944A1C18164CF520E030E040E251E4AE
:100470006E8D7F8D88A199A10E944F1CDC01CB015C
:10048000BC01CD010E94A61BDC01CB019FA38EA362
:100490000FC080E791E099A788A788A599A5019743
:1004A000F1F799A788A78EA19FA101979FA38EA37B
:1004B0008EA19FA1892B69F714C06AA17BA18CA191
:1004C0009DA10E94A61BDC01CB019FA38EA38EA140
:1004D0009FA19BA78AA78AA59BA50197F1F79BA738
:1004E0008AA780E00E949D0080E090E0A0E8BFE342
:1004F0008CA79DA7AEA7BFA726E636E646E655E43D
:100500006CA57DA58EA59FA50E944F1CDC01CB018B
:1005100088AB99ABAAABBBAB20E030E040E85FE32F
:1005200068A979A98AA99BA90E942F1B88232CF46A
:1005300081E090E09DAB8CAB3FC020E03FEF4FE708
:1005400057E468A979A98AA99BA90E944A1C181690
:100550004CF520E030E040E251E46CA57DA58EA58D
:100560009FA50E944F1CDC01CB01BC01CD010E9464
:10057000A61BDC01CB019DAB8CAB0FC080E791E0EB
:100580009FAB8EAB8EA99FA90197F1F79FAB8EAB66
:100590008CA99DA901979DAB8CAB8CA99DA9892B9A
:1005A00069F714C068A979A98AA99BA90E94A61B0A
:1005B000DC01CB019DAB8CAB8CA99DA999AF88AF19
:1005C00088AD99AD0197F1F799AF88AF80E00E94AF
:1005D0009D000E94BE0080E090E0A8ECB2E48AAFEB
:1005E0009BAFACAFBDAF8E01025C1F4F26E636E677
:1005F00046E655E46AAD7BAD8CAD9DAD0E944F1CC7
:10060000DC01CB01F80180839183A283B383CE0107
:10061000CE9620E030E040E85FE3FC01608171812C
:10062000828193810E942F1B88234CF4CE018E5B24
:100630009F4F21E030E0FC013183208367C0CE0171
:10064000CE9620E03FEF4FE757E4FC0160817181D7
:10065000828193810E944A1C18160CF046C020E04B
:1006600030E040E251E46AAD7BAD8CAD9DAD0E94BF
:100670004F1CDC01CB018E010E5B1F4FBC01CD0175
:100680000E94A61BDC01CB01F8019183808324C06A
:10069000CE018C5B9F4F20E731E0FC01318320834A
:1006A000CE018C5B9F4FFC01808191810197F1F716
:1006B0009E012C5B3F4FF90191838083CE018E5BBD
:1006C0009F4F9E012E5B3F4FF901208131812150C8
:1006D0003109FC0131832083CE018E5B9F4FFC01E9
:1006E00080819181892BA1F62BC08E010E5B1F4F5B
:1006F000CE01CE96FC0160817181828193810E943E
:10070000A61BDC01CB01F80191838083CE018A5BBB
:100710009F4F9E012E5B3F4FF90120813181FC01EB
:1007200031832083CE018A5B9F4FFC0180819181C0
:100730000197F1F79E012A5B3F4FF9019183808376
:1007400080E40E9460009E01285B3F4F80E090E0C3
:10075000A8ECB2E4F90180839183A283B3838E0174
:10076000045B1F4FCE01885B9F4F26E636E646E6C8
:1007700055E4FC0160817181828193810E944F1C4C
:10078000DC01CB01F80180839183A283B383CE0186
:10079000845B9F4F20E030E040E85FE3FC01608134
:1007A0007181828193810E942F1B88234CF4CE019A
:1007B000805B9F4F21E030E0FC01318320836DC0DE
:1007C000CE01845B9F4F20E03FEF4FE757E4FC01F1
:1007D00060817181828193810E944A1C18160CF0FD
:1007E0004AC0CE01885B9F4F20E030E040E251E4F8
:1007F000FC0160817181828193810E944F1CDC0128
:10080000CB018E01005B1F4FBC01CD010E94A61BD6
:10081000DC01CB01F8019183808324C0CE018E5A84
:100820009F4F20E731E0FC0131832083CE018E5AB7
:100830009F4FFC01808191810197F1F79E012E5A13
:100840003F4FF90191838083CE01805B9F4F9E01D2
:10085000205B3F4FF9012081318121503109FC019A
:1008600031832083CE01805B9F4FFC018081918189
:10087000892BA1F62CC08E01005B1F4FCE01845B3B
:100880009F4FFC0160817181828193810E94A61B30
:10089000DC01CB01F80191838083CE018C5A9F4FFC
:1008A0009E01205B3F4FF90120813181FC013183A2
:1008B0002083CE018C5A9F4FFC018081918101974A
:1008C000F1F79E012C5A3F4FF9019183808385E017
:1008D0000E949D009E012A5A3F4F80E090E0A0E2D6
:1008E000B1E4F90180839183A283B3838E01065A18
:1008F0001F4FCE018A5A9F4F26E636E646E655E45C
:10090000FC0160817181828193810E944F1CDC0116
:10091000CB01F80180839183A283B383CE01865AF1
:100920009F4F20E030E040E85FE3FC01608171818F
:10093000828193810E942F1B88234CF4CE01825A1E
:100940009F4F21E030E0FC01318320836DC0CE0158
:10095000865A9F4F20E03FEF4FE757E4FC0160814C
:100960007181828193810E944A1C18160CF04AC042
:10097000CE018A5A9F4F20E030E040E251E4FC0172
:1009800060817181828193810E944F1CDC01CB01C7
:100990008E01025A1F4FBC01CD010E94A61BDC0133
:1009A000CB01F8019183808324C0CE01805A9F4FF0
:1009B00020E731E0FC0131832083CE01805A9F4F34
:1009C000FC01808191810197F1F79E01205A3F4FF0
:1009D000F90191838083CE01825A9F4F9E01225A52
:1009E0003F4FF9012081318121503109FC013183D0
:1009F0002083CE01825A9F4FFC0180819181892BF7
:100A0000A1F62CC08E01025A1F4FCE01865A9F4F6D
:100A1000FC0160817181828193810E94A61BDC01AF
:100A2000CB01F80191838083CE018E599F4F9E01A7
:100A3000225A3F4FF90120813181FC01318320830B
:100A4000CE018E599F4FFC01808191810197F1F772
:100A50009E012E593F4FF9019183808380E20E94CD
:100A60009D000E94BE0080E40E9460009E012C59FF
:100A70003F4F80E090E0A8ECB2E4F90180839183DD
:100A8000A283B3838E0108591F4FCE018C599F4F0B
:100A900026E636E646E655E4FC01608171818281F6
:100AA00093810E944F1CDC01CB01F801808391836C
:100AB000A283B383CE0188599F4F20E030E040E805
:100AC0005FE3FC0160817181828193810E942F1B11
:100AD00088234CF4CE0184599F4F21E030E0FC0183
:100AE000318320836DC0CE0188599F4F20E03FEFB6
:100AF0004FE757E4FC0160817181828193810E94FC
:100B00004A1C18160CF04AC0CE018C599F4F20E0A9
:100B100030E040E251E4FC01608171818281938187
:100B20000E944F1CDC01CB018E0104591F4FBC01F8
:100B3000CD010E94A61BDC01CB01F80191838083CB
:100B400024C0CE0182599F4F20E731E0FC01318360
:100B50002083CE0182599F4FFC01808191810197B2
:100B6000F1F79E0122593F4FF90191838083CE0115
:100B700084599F4F9E0124593F4FF90120813181B3
:100B800021503109FC0131832083CE0184599F4FCC
:100B9000FC0180819181892BA1F62CC08E01045922
:100BA0001F4FCE0188599F4FFC0160817181828166
:100BB00093810E94A61BDC01CB01F8019183808305
:100BC000CE0180599F4F9E0124593F4FF90120814A
:100BD0003181FC0131832083CE0180599F4FFC017C
:100BE000808191810197F1F79E0120593F4FF901D2
:100BF0009183808389E00E949D009E012E583F4F83
:100C000080E090E0A0E2B1E4F90180839183A283C7
:100C1000B3838E010A581F4FCE018E589F4F26E690
:100C200036E646E655E4FC0160817181828193815C
:100C30000E944F1CDC01CB01F80180839183A283C9
:100C4000B383CE018A589F4F20E030E040E85FE355
:100C5000FC0160817181828193810E942F1B882316
:100C60004CF4CE0186589F4F21E030E0FC013183E7
:100C700020836DC0CE018A589F4F20E03FEF4FE7A1
:100C800057E4FC0160817181828193810E944A1C3A
:100C900018160CF04AC0CE018E589F4F20E030E06D
:100CA00040E251E4FC0160817181828193810E9464
:100CB0004F1CDC01CB018E0106581F4FBC01CD013A
:100CC0000E94A61BDC01CB01F8019183808324C024
:100CD000CE0184589F4F20E731E0FC01318320830F
:100CE000CE0184589F4FFC01808191810197F1F7DB
:100CF0009E0124583F4FF90191838083CE0186588D
:100D00009F4F9E0126583F4FF9012081318121508C
:100D10003109FC0131832083CE0186589F4FFC01AD
:100D200080819181892BA1F62CC08E0106581F4F1E
:100D3000CE018A589F4FFC0160817181828193812D
:100D40000E94A61BDC01CB01F80191838083CE01B8
:100D500082589F4F9E0126583F4FF90120813181D3
:100D6000FC0131832083CE0182589F4FFC0180819A
:100D700091810197F1F79E0122583F4FF90191832C
:100D8000808388E1898361E089810E94C00F9E0190
:100D900020583F4F80E090E0A4E2B2E4F901808364
:100DA0009183A283B3838E010C571F4FCE018058CD
:100DB0009F4F26E636E646E655E4FC0160817181E8
:100DC000828193810E944F1CDC01CB01F80180835A
:100DD0009183A283B383CE018C579F4F20E030E0F4
:100DE00040E85FE3FC0160817181828193810E9410
:100DF0002F1B88234CF4CE0188579F4F21E030E011
:100E0000FC01318320836DC0CE018C579F4F20E0C1
:100E10003FEF4FE757E4FC0160817181828193814C
:100E20000E944A1C18160CF04AC0CE0180589F4FF1
:100E300020E030E040E251E4FC0160817181828178
:100E400093810E944F1CDC01CB018E0108571F4F7C
:100E5000BC01CD010E94A61BDC01CB01F8019183EE
:100E6000808324C0CE0186579F4F20E731E0FC01EC
:100E700031832083CE0186579F4FFC018081918171
:100E80000197F1F79E0126573F4FF9019183808327
:100E9000CE0188579F4F9E0128573F4FF90120816F
:100EA000318121503109FC0131832083CE018857E3
:100EB0009F4FFC0180819181892BA1F62CC08E016E
:100EC00008571F4FCE018C579F4FFC0160817181E5
:100ED000828193810E94A61BDC01CB01F8019183E2
:100EE0008083CE0184579F4F9E0128573F4FF901C1
:100EF00020813181FC0131832083CE0184579F4FB3
:100F0000FC01808191810197F1F79E0124573F4FA9
:100F1000F9019183808388E1898361E089810E945E
:100F2000C00F9E0122573F4F80E090E0A0E8BFE352
:100F3000F90180839183A283B3838E010E561F4FE4
:100F4000CE0182579F4F26E636E646E655E4FC0181
:100F500060817181828193810E944F1CDC01CB01F1
:100F6000F80180839183A283B383CE018E569F4F75
:100F700020E030E040E85FE3FC0160817181828124
:100F800093810E942F1B88234CF4CE018A569F4FD9
:100F900021E030E0FC01318320836DC0CE018E560C
:100FA0009F4F20E03FEF4FE757E4FC0160817181E4
:100FB000828193810E944A1C18160CF04AC0CE010F
:100FC00082579F4F20E030E040E251E4FC01608115
:100FD0007181828193810E944F1CDC01CB018E01C3
:100FE0000A561F4FBC01CD010E94A61BDC01CB019C
:100FF000F8019183808324C0CE0188569F4F20E75B
:1010000031E0FC0131832083CE0188569F4FFC01E3
:10101000808191810197F1F79E0128563F4FF90198
:1010200091838083CE018A569F4F9E012A563F4F5F
:10103000F9012081318121503109FC013183208364
:10104000CE018A569F4FFC0180819181892BA1F6A8
:101050002CC08E010A561F4FCE018E569F4FFC01A9
:1010600060817181828193810E94A61BDC01CB018A
:10107000F80191838083CE0186569F4F9E012A56A8
:101080003F4FF90120813181FC0131832083CE0162
:1010900086569F4FFC01808191810197F1F79E0157
:1010A00026563F4FF9019183808388E1898361E06F
:1010B00089810E94C00F9E0124563F4F80E090E03E
:1010C000A0E8BFE3F90180839183A283B3838E01FB
:1010D00000561F4FCE0184569F4F26E636E646E661
:1010E00055E4FC0160817181828193810E944F1CD3
:1010F000DC01CB01F80180839183A283B383CE010D
:1011000080569F4F20E030E040E85FE3FC016081C3
:101110007181828193810E942F1B88234CF4CE0120
:101120008C559F4F21E030E0FC01318320836DC05E
:10113000CE0180569F4F20E03FEF4FE757E4FC0180
:1011400060817181828193810E944A1C18160CF083
:101150004AC0CE0184569F4F20E030E040E251E487
:10116000FC0160817181828193810E944F1CDC01AE
:10117000CB018E010C551F4FBC01CD010E94A61B57
:10118000DC01CB01F8019183808324C0CE018A5514
:101190009F4F20E731E0FC0131832083CE018A5547
:1011A0009F4FFC01808191810197F1F79E012A55A3
:1011B0003F4FF90191838083CE018C559F4F9E0153
:1011C0002C553F4FF9012081318121503109FC011B
:1011D00031832083CE018C559F4FFC01808191810A
:1011E000892BA1F62CC08E010C551F4FCE018056C5
:1011F0009F4FFC0160817181828193810E94A61BB7
:10120000DC01CB01F80191838083CE0188559F4F8B
:101210009E012C553F4FF90120813181FC01318322
:101220002083CE0188559F4FFC01808191810197D9
:10123000F1F79E0128553F4FF9019183808380E1AA
:10124000898361E089810E94C00F9E0126553F4F2E
:1012500080E090E0A0E2B1E4F90180839183A28371
:10126000B3838E0102551F4FCE0186559F4F26E650
:1012700036E646E655E4FC01608171818281938106
:101280000E944F1CDC01CB01F80180839183A28373
:10129000B383CE0182559F4F20E030E040E85FE30A
:1012A000FC0160817181828193810E942F1B8823C0
:1012B0004CF4CE018E549F4F21E030E0FC0131838D
:1012C00020836DC0CE0182559F4F20E03FEF4FE756
:1012D00057E4FC0160817181828193810E944A1CE4
:1012E00018160CF04AC0CE0186559F4F20E030E022
:1012F00040E251E4FC0160817181828193810E940E
:101300004F1CDC01CB018E010E541F4FBC01CD01DF
:101310000E94A61BDC01CB01F8019183808324C0CD
:10132000CE018C549F4F20E731E0FC0131832083B4
:10133000CE018C549F4FFC01808191810197F1F780
:101340009E012C543F4FF90191838083CE018E542E
:101350009F4F9E012E543F4FF90120813181215032
:101360003109FC0131832083CE018E549F4FFC0153
:1013700080819181892BA1F62CC08E010E541F4FC4
:10138000CE0182559F4FFC016081718182819381E2
:101390000E94A61BDC01CB01F80191838083CE0162
:1013A0008A549F4F9E012E543F4FF9012081318175
:1013B000FC0131832083CE018A549F4FFC01808140
:1013C00091810197F1F79E012A543F4FF9019183D2
:1013D0008083C954DF4F0FB6F894DEBF0FBECDBF78
:1013E000DF91CF911F910F9108950F931F93CF938A
:1013F000DF93CDB7DEB7C754D1090FB6F894DEBF7F
:101400000FBECDBF0E94E00F80E090E0A8ECB3E4F7
:101410008A839B83AC83BD8326E636E646E655E4A5
:101420006A817B818C819D810E944F1CDC01CB01F4
:101430008E839F83A887B98720E030E040E85FE390
:101440006E817F81888599850E942F1B88232CF4CB
:1014500081E090E09B878A873FC020E03FEF4FE725
:1014600057E46E817F81888599850E944A1C1816F1
:101470004CF520E030E040E251E46A817B818C81D0
:101480009D810E944F1CDC01CB01BC01CD010E945B
:10149000A61BDC01CB019B878A870FC080E791E008
:1014A0009D878C878C859D850197F1F79D878C871B
:1014B0008A859B8501979B878A878A859B85892B4F
:1014C00069F714C06E817F81888599850E94A61B6B
:1014D000DC01CB019B878A878A859B859F878E87C6
:1014E0008E859F850197F1F79F878E8780E6898398
:1014F00060E089810E94C00F80E090E0A4E2B2E445
:10150000888B998BAA8BBB8B26E636E646E655E49C
:10151000688979898A899B890E944F1CDC01CB01EB
:101520008C8B9D8BAE8BBF8B20E030E040E85FE37F
:101530006C897D898E899F890E942F1B88232CF4BA
:1015400081E090E0998F888F3FC020E03FEF4FE728
:1015500057E46C897D898E899F890E944A1C1816E0
:101560004CF520E030E040E251E4688979898A89CD
:101570009B890E944F1CDC01CB01BC01CD010E9464
:10158000A61BDC01CB01998F888F0FC080E791E00B
:101590009B8F8A8F8A8D9B8D0197F1F79B8F8A8F06
:1015A000888D998D0197998F888F888D998D892B3A
:1015B00069F714C06C897D898E899F890E94A61B5A
:1015C000DC01CB01998F888F888D998D9D8F8C8FB1
:1015D0008C8D9D8D0197F1F79D8F8C8F80E689838F
:1015E00060E089810E94C00F80E090E0A0E8BFE346
:1015F0008E8F9F8FA8A3B9A326E636E646E655E46C
:101600006E8D7F8D88A199A10E944F1CDC01CB01BA
:101610008AA39BA3ACA3BDA320E030E040E85FE336
:101620006AA17BA18CA19DA10E942F1B88232CF471
:1016300081E090E09FA38EA33FC020E03FEF4FE703
:1016400057E46AA17BA18CA19DA10E944A1C181697
:101650004CF520E030E040E251E46E8D7F8D88A1B2
:1016600099A10E944F1CDC01CB01BC01CD010E945D
:10167000A61BDC01CB019FA38EA30FC080E791E0E6
:1016800099A788A788A599A50197F1F799A788A791
:101690008EA19FA101979FA38EA38EA19FA1892BAD
:1016A00069F714C06AA17BA18CA19DA10E94A61B11
:1016B000DC01CB019FA38EA38EA19FA19BA78AA72C
:1016C0008AA59BA50197F1F79BA78AA780E6898346
:1016D00060E089810E94C00F80E090E0A0E8BFE355
:1016E0008CA79DA7AEA7BFA726E636E646E655E43B
:1016F0006CA57DA58EA59FA50E944F1CDC01CB018A
:1017000088AB99ABAAABBBAB20E030E040E85FE32D
:1017100068A979A98AA99BA90E942F1B88232CF468
:1017200081E090E09DAB8CAB3FC020E03FEF4FE706
:1017300057E468A979A98AA99BA90E944A1C18168E
:101740004CF520E030E040E251E46CA57DA58EA58B
:101750009FA50E944F1CDC01CB01BC01CD010E9462
:10176000A61BDC01CB019DAB8CAB0FC080E791E0E9
:101770009FAB8EAB8EA99FA90197F1F79FAB8EAB64
:101780008CA99DA901979DAB8CAB8CA99DA9892B98
:1017900069F714C068A979A98AA99BA90E94A61B08
:1017A000DC01CB019DAB8CAB8CA99DA999AF88AF17
:1017B00088AD99AD0197F1F799AF88AF80E2898341
:1017C00060E089810E94C00F80E090E0A0E2B1E477
:1017D0008AAF9BAFACAFBDAF8E01025C1F4F26E658
:1017E00036E646E655E46AAD7BAD8CAD9DAD0E9414
:1017F0004F1CDC01CB01F80180839183A283B3836A
:10180000CE01CE9620E030E040E85FE3FC0160814D
:101810007181828193810E942F1B88234CF4CE0119
:101820008E5B9F4F21E030E0FC013183208367C055
:10183000CE01CE9620E03FEF4FE757E4FC016081F8
:101840007181828193810E944A1C18160CF046C057
:1018500020E030E040E251E46AAD7BAD8CAD9DAD5F
:101860000E944F1CDC01CB018E010E5B1F4FBC019F
:10187000CD010E94A61BDC01CB01F801918380837E
:1018800024C0CE018C5B9F4F20E731E0FC01318307
:101890002083CE018C5B9F4FFC0180819181019759
:1018A000F1F79E012C5B3F4FF90191838083CE01BC
:1018B0008E5B9F4F9E012E5B3F4FF901208131814E
:1018C00021503109FC0131832083CE018E5B9F4F73
:1018D000FC0180819181892BA1F62BC08E010E5BCA
:1018E0001F4FCE01CE96FC01608171818281938170
:1018F0000E94A61BDC01CB01F80191838083CE01FD
:101900008A5B9F4F9E012E5B3F4FF9012081318101
:10191000FC0131832083CE018A5B9F4FFC018081D3
:1019200091810197F1F79E012A5B3F4FF901918365
:101930008083C95BDF4F0FB6F894DEBF0FBECDBF0B
:10194000DF91CF911F910F910895CF93DF93CDB782
:10195000DEB7A1970FB6F894DEBF0FBECDBF88A348
:1019600069A388A1807F898388A18F708A8389A1D8
:10197000882361F489810E946A0F8295807F898320
:101980008A810E946A0F82958F708A8389818695E9
:101990008B838B8180688B838B8184608B838B812D
:1019A0008D7F8B8369A18B810E94AA0F8B818B7F96
:1019B0008B8369A18B810E94AA0F80E090E0A0E256
:1019C000B1E48C839D83AE83BF8326E636E646E68C
:1019D00055E46C817D818E819F810E944F1CDC01CA
:1019E000CB0188879987AA87BB8720E030E040E851
:1019F0005FE3688579858A859B850E942F1B8823F4
:101A00002CF481E090E09D878C873FC020E03FEF81
:101A10004FE757E4688579858A859B850E944A1C33
:101A200018164CF520E030E040E251E46C817D81F5
:101A30008E819F810E944F1CDC01CB01BC01CD0136
:101A40000E94A61BDC01CB019D878C870FC080E71D
:101A500091E09F878E878E859F850197F1F79F87FD
:101A60008E878C859D8501979D878C878C859D852C
:101A7000892B69F714C0688579858A859B850E94C2
:101A8000A61BDC01CB019D878C878C859D85998B5E
:101A9000888B888999890197F1F7998B888B8A813E
:101AA000880F880F880F8B838B8180688B838B8155
:101AB00084608B838B818D7F8B8369A18B810E9456
:101AC000AA0F8B818B7F8B8369A18B810E94AA0FC8
:101AD00080E090E0A0E2B1E48A8B9B8BAC8BBD8B65
:101AE00026E636E646E655E46A897B898C899D8937
:101AF0000E944F1CDC01CB018E8B9F8BA88FB98F6E
:101B000020E030E040E85FE36E897F89888D998D21
:101B10000E942F1B88232CF481E090E09B8F8A8FFA
:101B20003FC020E03FEF4FE757E46E897F89888D03
:101B3000998D0E944A1C18164CF520E030E040E2D6
:101B400051E46A897B898C899D890E944F1CDC0144
:101B5000CB01BC01CD010E94A61BDC01CB019B8FF8
:101B60008A8F0FC080E791E09D8F8C8F8C8D9D8D2B
:101B70000197F1F79D8F8C8F8A8D9B8D01979B8F9D
:101B80008A8F8A8D9B8D892B69F714C06E897F8916
:101B9000888D998D0E94A61BDC01CB019B8F8A8FBB
:101BA0008A8D9B8D9F8F8E8F8E8D9F8D0197F1F7E4
:101BB0009F8F8E8FA1960FB6F894DEBF0FBECDBF5C
:101BC000DF91CF910895CF93DF93CDB7DEB7A19783
:101BD0000FB6F894DEBF0FBECDBF88A369A388A15E
:101BE000807F898388A18F708A83898186958B8382
:101BF0008B8186688B8369A18B810E94AA0F8B8160
:101C00008B7F8B8369A18B810E94AA0F80E090E07B
:101C1000A0E2B1E48C839D83AE83BF8326E636E6E3
:101C200046E655E46C817D818E819F810E944F1C28
:101C3000DC01CB0188879987AA87BB8720E030E049
:101C400040E85FE3688579858A859B850E942F1B24
:101C500088232CF481E090E09D878C873FC020E0B2
:101C60003FEF4FE757E4688579858A859B850E9419
:101C70004A1C18164CF520E030E040E251E46C813B
:101C80007D818E819F810E944F1CDC01CB01BC01B4
:101C9000CD010E94A61BDC01CB019D878C870FC064
:101CA00080E791E09F878E878E859F850197F1F76A
:101CB0009F878E878C859D8501979D878C878C85D6
:101CC0009D85892B69F714C0688579858A859B85F0
:101CD0000E94A61BDC01CB019D878C878C859D858E
:101CE000998B888B888999890197F1F7998B888BD3
:101CF0008A81880F880F880F8B838B8186688B83FE
:101D000069A18B810E94AA0F8B818B7F8B8369A134
:101D10008B810E94AA0F80E090E0A0E2B1E48A8B60
:101D20009B8BAC8BBD8B26E636E646E655E46A898E
:101D30007B898C899D890E944F1CDC01CB018E8B95
:101D40009F8BA88FB98F20E030E040E85FE36E8979
:101D50007F89888D998D0E942F1B88232CF481E028
:101D600090E09B8F8A8F3FC020E03FEF4FE757E422
:101D70006E897F89888D998D0E944A1C18164CF5B2
:101D800020E030E040E251E46A897B898C899D89BA
:101D90000E944F1CDC01CB01BC01CD010E94A61B9F
:101DA000DC01CB019B8F8A8F0FC080E791E09D8F74
:101DB0008C8F8C8D9D8D0197F1F79D8F8C8F8A8DE7
:101DC0009B8D01979B8F8A8F8A8D9B8D892B69F7BD
:101DD00014C06E897F89888D998D0E94A61BDC01B5
:101DE000CB019B8F8A8F8A8D9B8D9F8F8E8F8E8D3F
:101DF0009F8D0197F1F79F8F8E8FA1960FB6F89464
:101E0000DEBF0FBECDBFDF91CF910895CF93DF939B
:101E100000D000D0CDB7DEB78B836C838C81882354
:101E2000E9F48B81807F89838B818F708A8389819C
:101E30000E946A0F89838A810E946A0F8A8389813E
:101E4000882F90E082959295907F9827807F9827A1
:101E5000982F8A8182958F70892B8B836C818B81DF
:101E60000E94E30D0F900F900F900F90DF91CF9194
:101E70000895CF93DF93CDB7DEB728970FB6F894C8
:101E8000DEBF0FBECDBF9D838C837F836E8348876B
:101E90008E818A83198211C08981882F90E02C81DC
:101EA0003D81820F931FFC0180818B8368858B812C
:101EB0000E94060F89818F5F898399818A81981793
:101EC00058F328960FB6F894DEBF0FBECDBFDF9152
:101ED000CF910895CF93DF9300D000D0CDB7DEB778
:101EE0008C8388E08B8319821A8228C08C81882F8A
:101EF00090E02A81222F30E002C0959587952A959F
:101F0000E2F781709927892BB1F08B81882F90E0BF
:101F10009C01215031098A81882F90E0281B390BC0
:101F200081E090E002C0880F991F2A95E2F7982F70
:101F30008981892B89838A818F5F8A839A818B81AA
:101F40009817A0F289810F900F900F900F90DF915A
:101F5000CF910895CF93DF9300D0CDB7DEB78983BB
:101F60006A838A81813021F489810E949D0003C0A7
:101F700089810E9410100F900F90DF91CF910895EA
:101F8000CF93DF9300D0CDB7DEB789836A83898191
:101F90008460898389818D7F89836A8189810E9498
:101FA000AA0F89818B7F898389818D7F89836A814B
:101FB00089810E94AA0F0F900F90DF91CF91089511
:101FC000CF93DF93CDB7DEB784E290E024E230E038
:101FD000F90120812C62FC01208384E290E024E25C
:101FE00030E0F90120812F7EFC01208385E290E022
:101FF00025E230E0F90120812460FC0120838CE49B
:1020000090E022E5FC0120838DE490E02DE430E0B7
:10201000F90120812E7FFC012083DF91CF9108956B
:10202000CF93DF9300D0CDB7DEB78A838EE490E004
:102030002A81FC01208300008DE490E0FC01808176
:102040008823D4F70E942E108EE490E0FC0180815A
:1020500089830F900F90DF91CF910895CF93DF93F5
:10206000CDB7DEB7C054D1090FB6F894DEBF0FBEAE
:10207000CDBF85E290E025E230E0F90120812460C7
:10208000FC01208380E090E0A0E8BFE389839A838D
:10209000AB83BC8322E539E44DE950E469817A8160
:1020A0008B819C810E944F1CDC01CB018D839E8320
:1020B000AF83B8872AEF3DEE4BE650E469817A8121
:1020C0008B819C810E944F1CDC01CB0189879A8700
:1020D000AB87BC8720E030E040E85FE36D817E8124
:1020E0008F8198850E942F1B88231CF481E08D87A7
:1020F000B2C020E03FEF4FE757E469857A858B85D2
:102100009C850E944A1C18160CF07BC020E030E031
:102110004AE754E469817A818B819C810E94341B57
:10212000DC01CB018E879F87A88BB98B26E636E62C
:1021300046E655E46E857F85888999890E944F1C03
:10214000DC01CB018A8B9B8BAC8BBD8B20E030E01C
:1021500040E85FE36A897B898C899D890E942F1BF7
:1021600088232CF481E090E09F8B8E8B3FC020E091
:102170003FEF4FE757E46A897B898C899D890E94EC
:102180004A1C18164CF520E030E040E251E46E8520
:102190007F85888999890E944F1CDC01CB01BC0195
:1021A000CD010E94A61BDC01CB019F8B8E8B0FC043
:1021B00080E791E0998F888F888D998D0197F1F74D
:1021C000998F888F8E899F8901979F8B8E8B8E899F
:1021D0009F89892B69F73FC06A897B898C899D8992
:1021E0000E94A61BDC01CB019F8B8E8B8E899F8961
:1021F0009B8F8A8F8A8D9B8D0197F1F79B8F8A8F9A
:102200002AC020E030E04FE753E46D817E818F816A
:1022100098850E944A1C1816ACF469857A858B85CE
:102220009C850E94A61BDC01CB019D8F8C8F8C8D21
:102230009D8D9F8F8E8F8E8D9F8D0197F1F79F8F34
:102240008E8F0FC06D817E818F8198850E94A61B25
:10225000DC01CB018D878D8588A388A18A95F1F754
:1022600088A385E290E025E230E0F90120812B7F10
:10227000FC01208380E090E0A0E8BFE389A39AA35B
:10228000ABA3BCA322E539E44DE950E469A17AA1EE
:102290008BA19CA10E944F1CDC01CB018DA39EA3AE
:1022A000AFA3B8A72AEF3DEE4BE650E469A17AA1AF
:1022B0008BA19CA10E944F1CDC01CB0189A79AA78E
:1022C000ABA7BCA720E030E040E85FE36DA17EA1B2
:1022D0008FA198A50E942F1B88231CF481E08DA755
:1022E000B2C020E03FEF4FE757E469A57AA58BA580
:1022F0009CA50E944A1C18160CF07BC020E030E020
:102300004AE754E469A17AA18BA19CA10E94341BE5
:10231000DC01CB018EA79FA7A8ABB9AB26E636E6BA
:1023200046E655E46EA57FA588A999A90E944F1C91
:10233000DC01CB018AAB9BABACABBDAB20E030E0AA
:1023400040E85FE36AA97BA98CA99DA90E942F1B85
:1023500088232CF481E090E09FAB8EAB3FC020E05F
:102360003FEF4FE757E46AA97BA98CA99DA90E947A
:102370004A1C18164CF520E030E040E251E46EA50E
:102380007FA588A999A90E944F1CDC01CB01BC0143
:10239000CD010E94A61BDC01CB019FAB8EAB0FC011
:1023A00080E791E099AF88AF88AD99AD0197F1F7DB
:1023B00099AF88AF8EA99FA901979FAB8EAB8EA9CD
:1023C0009FA9892B69F73FC06AA97BA98CA99DA900
:1023D0000E94A61BDC01CB019FAB8EAB8EA99FA9EF
:1023E0009BAF8AAF8AAD9BAD0197F1F79BAF8AAFE8
:1023F0002AC020E030E04FE753E46DA17EA18FA119
:1024000098A50E944A1C1816ACF469A57AA58BA55C
:102410009CA50E94A61BDC01CB019DAF8CAF8CADAF
:102420009DAD9FAF8EAF8EAD9FAD0197F1F79FAF82
:102430008EAF1CC06DA17EA18FA198A50E94A61B86
:10244000DC01CB018DA72DA5CE01805C9F4FFC0147
:102450002083CE01805C9F4FFC018081282F2A952C
:10246000F1F7CE01805C9F4FFC012083C05CDF4F01
:102470000FB6F894DEBF0FBECDBFDF91CF910895A8
:102480000F931F93CF93DF93CDB7DEB7C85CD1090D
:102490000FB6F894DEBF0FBECDBF80E00E94E30010
:1024A00080E090E0A8ECB2E489839A83AB83BC839C
:1024B00026E636E646E655E469817A818B819C8181
:1024C0000E944F1CDC01CB018D839E83AF83B887B4
:1024D00020E030E040E85FE36D817E818F81988568
:1024E0000E942F1B88232CF481E090E09A87898733
:1024F0003FC020E03FEF4FE757E46D817E818F8141
:1025000098850E944A1C18164CF520E030E040E205
:1025100051E469817A818B819C810E944F1CDC018E
:10252000CB01BC01CD010E94A61BDC01CB019A8727
:1025300089870FC080E791E09C878B878B859C857E
:102540000197F1F79C878B8789859A8501979A87F0
:10255000898789859A85892B69F714C06D817E8169
:102560008F8198850E94A61BDC01CB019A87898701
:1025700089859A859E878D878D859E850197F1F740
:102580009E878D8781E00E94E30080E090E0A8ECC8
:10259000B2E48F87988BA98BBA8B26E636E646E69F
:1025A00055E46F85788989899A890E944F1CDC01DE
:1025B000CB018B8B9C8BAD8BBE8B20E030E040E859
:1025C0005FE36B897C898D899E890E942F1B8823FC
:1025D0002CF481E090E0988F8F8B3FC020E03FEF9C
:1025E0004FE757E46B897C898D899E890E944A1C3C
:1025F00018164CF520E030E040E251E46F85788910
:1026000089899A890E944F1CDC01CB01BC01CD0154
:102610000E94A61BDC01CB01988F8F8B0FC080E737
:1026200091E09A8F898F898D9A8D0197F1F79A8F12
:10263000898F8F89988D0197988F8F8B8F89988D2F
:10264000892B69F714C06B897C898D899E890E94CA
:10265000A61BDC01CB01988F8F8B8F89988D9C8F67
:102660008B8F8B8D9C8D0197F1F79C8F8B8FCE017B
:1026700089549F4F29E0E0E0F1E0DC0101900D92E8
:102680002A95E1F7CE0180549F4F29E0E9E0F1E07F
:10269000DC0101900D922A95E1F7CE0189549F4FFC
:1026A00040E068E070E00E94390F80E090E0A8EC24
:1026B000B2E48D8F9E8FAF8FB8A326E636E646E64E
:1026C00055E46D8D7E8D8F8D98A10E944F1CDC018D
:1026D000CB0189A39AA3ABA3BCA320E030E040E8E0
:1026E0005FE369A17AA18BA19CA10E942F1B882383
:1026F0002CF481E090E09EA38DA33FC020E03FEF4B
:102700004FE757E469A17AA18BA19CA10E944A1CC2
:1027100018164CF520E030E040E251E46D8D7E8DDE
:102720008F8D98A10E944F1CDC01CB01BC01CD0113
:102730000E94A61BDC01CB019EA38DA30FC080E7E6
:1027400091E098A78FA38FA198A50197F1F798A77B
:102750008FA38DA19EA101979EA38DA38DA19EA164
:10276000892B69F714C069A17AA18BA19CA10E9451
:10277000A61BDC01CB019EA38DA38DA19EA19AA7D0
:1027800089A789A59AA50197F1F79AA789A7CE01EC
:1027900089549F4F41E068E070E00E94390F80E06B
:1027A00090E0A8ECB2E48BA79CA7ADA7BEA726E655
:1027B00036E646E655E46BA57CA58DA59EA50E9450
:1027C0004F1CDC01CB018FA798ABA9ABBAAB20E0C3
:1027D00030E040E85FE36FA578A989A99AA90E9433
:1027E0002F1B88232CF481E090E09CAB8BAB3FC087
:1027F00020E03FEF4FE757E46FA578A989A99AA990
:102800000E944A1C18164CF520E030E040E251E4EA
:102810006BA57CA58DA59EA50E944F1CDC01CB015C
:10282000BC01CD010E94A61BDC01CB019CAB8BAB94
:102830000FC080E791E09EAB8DAB8DA99EA901975B
:10284000F1F79EAB8DAB8BA99CA901979CAB8BAB91
:102850008BA99CA9892B69F714C06FA578A989A9B0
:102860009AA90E94A61BDC01CB019CAB8BAB8BA968
:102870009CA998AF8FAB8FA998AD0197F1F798AF4E
:102880008FAB80E090E0AAE7B4E489AF9AAFABAF3A
:10289000BCAF26E636E646E655E469AD7AAD8BADCB
:1028A0009CAD0E944F1CDC01CB019E01235C3F4F7D
:1028B000F90180839183A283B38320E030E040E874
:1028C0005FE3CE01CD96FC016081718182819381AD
:1028D0000E942F1B88234CF4CE018F5B9F4F21E079
:1028E00030E0FC013183208367C020E03FEF4FE7F9
:1028F00057E4CE01CD96FC01608171818281938184
:102900000E944A1C18160CF046C020E030E040E25D
:1029100051E469AD7AAD8BAD9CAD0E944F1CDC01DA
:10292000CB018E010F5B1F4FBC01CD010E94A61B86
:10293000DC01CB01F8019183808324C0CE018D5B43
:102940009F4F20E731E0FC0131832083CE018D5B76
:102950009F4FFC01808191810197F1F79E012D5BD2
:102960003F4FF90191838083CE018F5B9F4F9E0182
:102970002F5B3F4FF9012081318121503109FC014A
:1029800031832083CE018F5B9F4FFC018081918139
:10299000892BA1F62BC08E010F5B1F4FCE01CD9668
:1029A000FC0160817181828193810E94A61BDC0100
:1029B000CB01F80191838083CE018B5B9F4F9E01F9
:1029C0002F5B3F4FF90120813181FC01318320834E
:1029D000CE018B5B9F4FFC01808191810197F1F7C4
:1029E0009E012B5B3F4FF901918380839E01295B00
:1029F0003F4F80E090E0A0E2B1E4F9018083918351
:102A0000A283B3838E01055B1F4FCE01895B9F4F6D
:102A100026E636E646E655E4FC0160817181828156
:102A200093810E944F1CDC01CB01F80180839183CC
:102A3000A283B383CE01855B9F4F20E030E040E866
:102A40005FE3FC0160817181828193810E942F1B71
:102A500088234CF4CE01815B9F4F21E030E0FC01E4
:102A6000318320836DC0CE01855B9F4F20E03FEF17
:102A70004FE757E4FC0160817181828193810E945C
:102A80004A1C18160CF04AC0CE01895B9F4F20E00B
:102A900030E040E251E4FC016081718182819381E8
:102AA0000E944F1CDC01CB018E01015B1F4FBC015A
:102AB000CD010E94A61BDC01CB01F801918380832C
:102AC00024C0CE018F5A9F4F20E731E0FC013183B3
:102AD0002083CE018F5A9F4FFC0180819181019705
:102AE000F1F79E012F5A3F4FF90191838083CE0168
:102AF000815B9F4F9E01215B3F4FF9012081318116
:102B000021503109FC0131832083CE01815B9F4F2D
:102B1000FC0180819181892BA1F62CC08E01015B83
:102B20001F4FCE01855B9F4FFC01608171818281C7
:102B300093810E94A61BDC01CB01F8019183808365
:102B4000CE018D5A9F4F9E01215B3F4FF90120819D
:102B50003181FC0131832083CE018D5A9F4FFC01CE
:102B6000808191810197F1F79E012D5A3F4FF90124
:102B7000918380839E012B5A3F4F80E090E0A8EC28
:102B8000B2E4F90180839183A283B3838E01075A53
:102B90001F4FCE018B5A9F4F26E636E646E655E498
:102BA000FC0160817181828193810E944F1CDC0154
:102BB000CB01F80180839183A283B383CE01875A2E
:102BC0009F4F20E030E040E85FE3FC0160817181CD
:102BD000828193810E942F1B88234CF4CE01835A5B
:102BE0009F4F21E030E0FC01318320836DC0CE0196
:102BF000875A9F4F20E03FEF4FE757E4FC01608189
:102C00007181828193810E944A1C18160CF04AC07F
:102C1000CE018B5A9F4F20E030E040E251E4FC01AE
:102C200060817181828193810E944F1CDC01CB0104
:102C30008E01035A1F4FBC01CD010E94A61BDC016F
:102C4000CB01F8019183808324C0CE01815A9F4F2C
:102C500020E731E0FC0131832083CE01815A9F4F70
:102C6000FC01808191810197F1F79E01215A3F4F2C
:102C7000F90191838083CE01835A9F4F9E01235A8D
:102C80003F4FF9012081318121503109FC0131830D
:102C90002083CE01835A9F4FFC0180819181892B33
:102CA000A1F62CC08E01035A1F4FCE01875A9F4FA9
:102CB000FC0160817181828193810E94A61BDC01ED
:102CC000CB01F80191838083CE018F599F4F9E01E4
:102CD000235A3F4FF90120813181FC013183208348
:102CE000CE018F599F4FFC01808191810197F1F7AF
:102CF0009E012F593F4FF9019183808361E081E06C
:102D00000E94A50C9E012D593F4F80E090E0A0E26B
:102D1000B1E4F90180839183A283B3838E010959C1
:102D20001F4FCE018D599F4F26E636E646E655E405
:102D3000FC0160817181828193810E944F1CDC01C2
:102D4000CB01F80180839183A283B383CE0189599B
:102D50009F4F20E030E040E85FE3FC01608171813B
:102D6000828193810E942F1B88234CF4CE018559C8
:102D70009F4F21E030E0FC01318320836DC0CE0104
:102D800089599F4F20E03FEF4FE757E4FC016081F6
:102D90007181828193810E944A1C18160CF04AC0EE
:102DA000CE018D599F4F20E030E040E251E4FC011C
:102DB00060817181828193810E944F1CDC01CB0173
:102DC0008E0105591F4FBC01CD010E94A61BDC01DD
:102DD000CB01F8019183808324C0CE0183599F4F9A
:102DE00020E731E0FC0131832083CE0183599F4FDE
:102DF000FC01808191810197F1F79E0123593F4F9A
:102E0000F90191838083CE0185599F4F9E012559F9
:102E10003F4FF9012081318121503109FC0131837B
:102E20002083CE0185599F4FFC0180819181892BA0
:102E3000A1F62CC08E0105591F4FCE0189599F4F15
:102E4000FC0160817181828193810E94A61BDC015B
:102E5000CB01F80191838083CE0181599F4F9E0160
:102E600025593F4FF90120813181FC0131832083B5
:102E7000CE0181599F4FFC01808191810197F1F72B
:102E80009E0121593F4FF90191838083CE018054E7
:102E90009F4F41E068E070E00E94390F9E012F587B
:102EA0003F4F80E090E0AAE7B4E4F901808391838A
:102EB000A283B3838E010B581F4FCE018F589F4FB3
:102EC00026E636E646E655E4FC01608171818281A2
:102ED00093810E944F1CDC01CB01F8018083918318
:102EE000A283B383CE018B589F4F20E030E040E8AF
:102EF0005FE3FC0160817181828193810E942F1BBD
:102F000088234CF4CE0187589F4F21E030E0FC012C
:102F1000318320836DC0CE018B589F4F20E03FEF5F
:102F20004FE757E4FC0160817181828193810E94A7
:102F30004A1C18160CF04AC0CE018F589F4F20E053
:102F400030E040E251E4FC01608171818281938133
:102F50000E944F1CDC01CB018E0107581F4FBC01A2
:102F6000CD010E94A61BDC01CB01F8019183808377
:102F700024C0CE0185589F4F20E731E0FC0131830A
:102F80002083CE0185589F4FFC018081918101975C
:102F9000F1F79E0125583F4FF90191838083CE01BF
:102FA00087589F4F9E0127583F4FF901208131815B
:102FB00021503109FC0131832083CE0187589F4F76
:102FC000FC0180819181892BA1F62CC08E010758CC
:102FD0001F4FCE018B589F4FFC0160817181828110
:102FE00093810E94A61BDC01CB01F80191838083B1
:102FF000CE0183589F4F9E0127583F4FF9012081F2
:103000003181FC0131832083CE0183589F4FFC0125
:10301000808191810197F1F79E0123583F4FF9017B
:10302000918380839E0121583F4F80E090E0A0E291
:10303000B1E4F90180839183A283B3838E010D579C
:103040001F4FCE0181589F4F26E636E646E655E4EF
:10305000FC0160817181828193810E944F1CDC019F
:10306000CB01F80180839183A283B383CE018D5776
:103070009F4F20E030E040E85FE3FC016081718118
:10308000828193810E942F1B88234CF4CE018957A3
:103090009F4F21E030E0FC01318320836DC0CE01E1
:1030A0008D579F4F20E03FEF4FE757E4FC016081D1
:1030B0007181828193810E944A1C18160CF04AC0CB
:1030C000CE0181589F4F20E030E040E251E4FC0106
:1030D00060817181828193810E944F1CDC01CB0150
:1030E0008E0109571F4FBC01CD010E94A61BDC01B8
:1030F000CB01F8019183808324C0CE0187579F4F75
:1031000020E731E0FC0131832083CE0187579F4FB8
:10311000FC01808191810197F1F79E0127573F4F74
:10312000F90191838083CE0189579F4F9E012957D2
:103130003F4FF9012081318121503109FC01318358
:103140002083CE0189579F4FFC0180819181892B7B
:10315000A1F62CC08E0109571F4FCE018D579F4FEE
:10316000FC0160817181828193810E94A61BDC0138
:10317000CB01F80191838083CE0185579F4F9E013B
:1031800029573F4FF90120813181FC013183208390
:10319000CE0185579F4FFC01808191810197F1F706
:1031A0009E0125573F4FF901918380839E0123574C
:1031B0003F4F80E090E0A8ECB2E4F9018083918376
:1031C000A283B3838E010F561F4FCE0183579F4FAB
:1031D00026E636E646E655E4FC016081718182818F
:1031E00093810E944F1CDC01CB01F8018083918305
:1031F000A283B383CE018F569F4F20E030E040E89A
:103200005FE3FC0160817181828193810E942F1BA9
:1032100088234CF4CE018B569F4F21E030E0FC0117
:10322000318320836DC0CE018F569F4F20E03FEF4A
:103230004FE757E4FC0160817181828193810E9494
:103240004A1C18160CF04AC0CE0183579F4F20E04D
:1032500030E040E251E4FC01608171818281938120
:103260000E944F1CDC01CB018E010B561F4FBC018D
:10327000CD010E94A61BDC01CB01F8019183808364
:1032800024C0CE0189569F4F20E731E0FC013183F5
:103290002083CE0189569F4FFC0180819181019747
:1032A000F1F79E0129563F4FF90191838083CE01AA
:1032B0008B569F4F9E012B563F4FF9012081318144
:1032C00021503109FC0131832083CE018B569F4F61
:1032D000FC0180819181892BA1F62CC08E010B56B7
:1032E0001F4FCE018F569F4FFC01608171818281FB
:1032F00093810E94A61BDC01CB01F801918380839E
:10330000CE0187569F4F9E012B563F4FF9012081DA
:103310003181FC0131832083CE0187569F4FFC0110
:10332000808191810197F1F79E0127563F4FF90166
:103330009183808361E081E00E94A50C9E01255667
:103340003F4F80E090E0A0E2B1E4F90180839183F7
:10335000A283B3838E0101561F4FCE0185569F4F26
:1033600026E636E646E655E4FC01608171818281FD
:1033700093810E944F1CDC01CB01F8018083918373
:10338000A283B383CE0181569F4F20E030E040E816
:103390005FE3FC0160817181828193810E942F1B18
:1033A00088234CF4CE018D559F4F21E030E0FC0185
:1033B000318320836DC0CE0181569F4F20E03FEFC7
:1033C0004FE757E4FC0160817181828193810E9403
:1033D0004A1C18160CF04AC0CE0185569F4F20E0BB
:1033E00030E040E251E4FC0160817181828193818F
:1033F0000E944F1CDC01CB018E010D551F4FBC01FB
:10340000CD010E94A61BDC01CB01F80191838083D2
:1034100024C0CE018B559F4F20E731E0FC01318362
:103420002083CE018B559F4FFC01808191810197B4
:10343000F1F79E012B553F4FF90191838083CE0117
:103440008D559F4F9E012D553F4FF90120813181B0
:1034500021503109FC0131832083CE018D559F4FCE
:10346000FC0180819181892BA1F62CC08E010D5524
:103470001F4FCE0181569F4FFC0160817181828177
:1034800093810E94A61BDC01CB01F801918380830C
:10349000CE0189559F4F9E012D553F4FF901208147
:1034A0003181FC0131832083CE0189559F4FFC017E
:1034B000808191810197F1F79E0129553F4FF901D4
:1034C00091838083CE0189549F4F41E068E070E092
:1034D0000E94390F9E0127553F4F80E090E0AAE7F8
:1034E000B4E4F90180839183A283B3838E010355F1
:1034F0001F4FCE0187559F4F26E636E646E655E438
:10350000FC0160817181828193810E944F1CDC01EA
:10351000CB01F80180839183A283B383CE018355CD
:103520009F4F20E030E040E85FE3FC016081718163
:10353000828193810E942F1B88234CF4CE018F54EB
:103540009F4F21E030E0FC01318320836DC0CE012C
:1035500083559F4F20E03FEF4FE757E4FC01608128
:103560007181828193810E944A1C18160CF04AC016
:10357000CE0187559F4F20E030E040E251E4FC014E
:1035800060817181828193810E944F1CDC01CB019B
:103590008E010F541F4FBC01CD010E94A61BDC0100
:1035A000CB01F8019183808324C0CE018D549F4FBD
:1035B00020E731E0FC0131832083CE018D549F4F01
:1035C000FC01808191810197F1F79E012D543F4FBD
:1035D000F90191838083CE018F549F4F9E012F5418
:1035E0003F4FF9012081318121503109FC013183A4
:1035F0002083CE018F549F4FFC0180819181892BC4
:10360000A1F62CC08E010F541F4FCE0183559F4F42
:10361000FC0160817181828193810E94A61BDC0183
:10362000CB01F80191838083CE018B549F4F9E0183
:103630002F543F4FF90120813181FC0131832083D8
:10364000CE018B549F4FFC01808191810197F1F74E
:103650009E012B543F4FF90191838083C7C90E947B
:10366000D51B08F481E008950E94481B0C94101C9F
:103670000E94091C58F00E94021C40F029F45F3F90
:1036800029F00C94F91B51110C94441C0C94FF1B51
:103690000E94211C68F39923B1F3552391F3951BE4
:1036A000550BBB27AA2762177307840738F09F5F63
:1036B0005F4F220F331F441FAA1FA9F335D00E2ED0
:1036C0003AF0E0E832D091505040E695001CCAF73D
:1036D0002BD0FE2F29D0660F771F881FBB1F261700
:1036E00037074807AB07B0E809F0BB0B802DBF01D7
:1036F000FF2793585F4F3AF09E3F510578F00C94A6
:10370000F91B0C94441C5F3FE4F3983ED4F3869578
:1037100077956795B795F7959F5FC9F7880F911DC6
:103720009695879597F90895E1E0660F771F881FB2
:10373000BB1F621773078407BA0720F0621B730B65
:10374000840BBA0BEE1F88F7E09508950E94291CA0
:1037500088F09F5798F0B92F9927B751B0F0E1F052
:10376000660F771F881F991F1AF0BA95C9F714C002
:10377000B13091F00E94431CB1E008950C94431CB9
:10378000672F782F8827B85F39F0B93FCCF386953B
:1037900077956795B395D9F73EF490958095709598
:1037A00061957F4F8F4F9F4F0895990F0008550FD8
:1037B000AA0BE0E8FEEF16161706E807F907C0F0B7
:1037C00012161306E407F50798F0621B730B840BBF
:1037D000950B39F40A2661F0232B242B252B21F499
:1037E00008950A2609F4A140A6958FEF811D811D39
:1037F000089597F99F6780E870E060E008959FEF73
:1038000080EC089500240A94161617061806090677
:10381000089500240A941216130614060506089546
:10382000092E0394000C11F4882352F0BB0F40F4CE
:10383000BF2B11F460FF04C06F5F7F4F8F4F9F4F0E
:10384000089557FD9058440F551F59F05F3F71F090
:103850004795880F97FB991F61F09F3F79F08795F7
:103860000895121613061406551FF2CF4695F1DF80
:1038700008C0161617061806991FF1CF8695710510
:10388000610508940895E894BB2766277727CB0144
:1038900097F908950E94D51B08F48FEF08950E94B0
:1038A000621C0C94101C0E94021C38F00E94091C1F
:1038B00020F0952311F00C94F91B0C94FF1B11249C
:1038C0000C94441C0E94211C70F3959FC1F3950F2A
:1038D00050E0551F629FF001729FBB27F00DB11D94
:1038E000639FAA27F00DB11DAA1F649F6627B00D24
:1038F000A11D661F829F2227B00DA11D621F739F0D
:10390000B00DA11D621F839FA00D611D221F749F1A
:103910003327A00D611D231F849F600D211D822F61
:10392000762F6A2F11249F5750409AF0F1F0882388
:103930004AF0EE0FFF1FBB1F661F771F881F9150B5
:103940005040A9F79E3F510580F00C94F91B0C9450
:10395000441C5F3FE4F3983ED4F3869577956795D2
:10396000B795F795E7959F5FC1F7FE2B880F911DDF
:0C3970009695879597F90895F894FFCF7D
:10397C006161616161616161006262626262626285
:02398C006200D7
:00000001FF
