:100000000C9434000C9449000C9449000C94490061
:100010000C9449000C9449000C9449000C9449003C
:100020000C9449000C9449000C9449000C9449002C
:100030000C9449000C9449000C9449000C9449001C
:100040000C9449000C9449000C9449000C9449000C
:100050000C9449000C9449000C9449000C944900FC
:100060000C9449000C94490011241FBECFEFD8E036
:10007000DEBFCDBF11E0A0E0B1E0E6E3F5E002C0F5
:1000800005900D92A031B107D9F70E9460010C9440
:1000900099020C940000CF93DF9330E020E090E0D1
:1000A000482F50E067E070E0E1E0F0E0DA01022E76
:1000B00002C0B595A7950A94E2F7A0FF0AC0DB013C
:1000C000A21BB30BEF0102C0CC0FDD1FAA95E2F714
:1000D0009C2B2F5F3F4F2830310541F7892FDF914F
:1000E000CF9108958CE10E94740288E10E9474020D
:1000F0002FE780E092E0215080409040E1F700C07F
:1001000000008CE10E94740288E10E9474028FE971
:100110009FE00197F1F700C000008CE10E9474029B
:1001200088E10E9474028FE99FE00197F1F700C017
:10013000000084E10E94740280E10E9474028FE357
:100140009CE90197F1F700C0000084E10E9474026D
:1001500080E10E9474028FE39CE90197F1F700C0EF
:10016000000084E60E94740280E60E9474028FE31D
:100170009CE90197F1F700C0000084E00E9474023E
:1001800080E00E94740284E40E94740280E40E9471
:1001900074028FE39CE90197F1F700C0000084E04E
:1001A0000E94740280E00E9474028CE00E9474023B
:1001B00088E00E9474028FE39CE90197F1F700C088
:1001C000000084E00E94740280E00E94740284E3D4
:1001D0000E94740280E30E9474028FE39CE90197FD
:1001E000F1F700C00000089584E00E94740280E0EE
:1001F0000E9474028FE39CE90197F1F700C00000B0
:1002000084E00E94740280E80E9474028FE39CE9FB
:100210000197F1F700C000000895CF93DF93C82F36
:10022000D82FD695D8778D2F86680E9474028D2F8F
:1002300082680E9474028FE39CE90197F1F700C085
:100240000000CC0FCC0FCC0FC8778C2F86680E9493
:1002500074028C2F82680E9474028FE39CE90197DC
:10026000F1F700C00000DF91CF910895CF93DF93A5
:10027000D82FDF70807F0E944B00C82F8D2F0E94E7
:100280004B0090E1C99FE001112482958F708C2B67
:10029000DF91CF910C940D010F931F93CF93DF93B8
:1002A000EC018C01060F111DC017D10729F4DF9155
:1002B000CF911F910F91089589910E943601F4CF3B
:1002C000CDB7DEB72F970FB6F894DEBF0FBECDBF08
:1002D0000E941A028FE99FE00197F1F700C0000029
:1002E00080E40E9420028FE99FE00197F1F700C0AF
:1002F000000080E00E9474028FE99FE00197F1F70F
:1003000000C0000080E00E9474020E946C029FEF17
:1003100021EE84E0915020408040E1F700C00000D1
:1003200080E40E9420029FEF21EE84E09150204063
:100330008040E1F700C0000085E00E9474028FE376
:100340009CE90197F1F700C0000080E20E9474026E
:100350000E946C0280E40E9420029FEF21EE84E064
:10036000915020408040E1F700C0000089E00E94E9
:1003700074028FE39CE90197F1F700C000000E942E
:1003800072008FE39CE90197F1F700C0000084E858
:100390000E94740280E80E9474028FE99FE0019736
:1003A000F1F700C0000084EF0E94740280EF0E9409
:1003B00074028FE39CE90197F1F700C0000086EA20
:1003C0000E9474028FE99FE00197F1F700C00000DE
:1003D00082EA0E9474028FE39CE90197F1F700C062
:1003E000000086EC0E94740282EC0E9474029FEF6F
:1003F00023ED80E3915020408040E1F700C00000F1
:100400008FE0E0E0F1E0DE01119601900D928A9517
:10041000E1F76EE070E0CE0101960E944C010E946F
:100420006C0290E080E02F960FB6F894DEBF0FBE0E
:10043000CDBF08951092B90088E48093B800089564
:1004400094EA9093BC009091BC0097FFFCCF9091F0
:10045000B900987F983011F0903199F48093BB00E7
:1004600084E88093BC008091BC0087FFFCCF909112
:10047000B900987F983119F081E0903409F480E058
:10048000089581E0089524EA34E844E92093BC000B
:100490009091BC0097FFFCCF9091B900987F983065
:1004A00011F0903199F78093BB003093BC0090918C
:1004B000BC0097FFFCCF9091B900987F903211F06B
:1004C000983539F44093BC009091BC0094FDFCCF6A
:1004D000DDCF08950C94200284E98093BC008091C4
:1004E000BC0084FDFCCF08958093BB0084E880931A
:1004F000BC008091BC0087FFFCCF9091B900987F31
:1005000081E0983209F480E0089584EC8093BC0087
:100510008091BC0087FFFCCF8091BB00089584E8E8
:100520008093BC008091BC0087FFFCCF8091BB0012
:060530000895F894FFCFCE
:100536004F204A6F616F2065206761792121000095
:00000001FF
